:1000000008100020179F0000159F0000D3A00000DB
:10001000159F0000159F0000159F0000159F000010
:10002000159F0000159F0000BCB30000159F000045
:10003000159F00006CB30000159F0000159F000085
:10004000159F0000159F0000159F0000159F0000E0
:10005000159F0000159F0000159F0000159F0000D0
:10006000159F0000159F0000159F0000159F0000C0
:10007000159F0000159F0000159F0000159F0000B0
:10008000159F0000159F0000159F0000159F0000A0
:10009000159F0000159F0000159F0000159F000090
:1000A000159F0000159F0000159F0000159F000080
:1000B000159F000027B20000159F00007D930000EF
:1000C0002DB2000029B20000218B000039B20000DF
:1000D00031B200004193000035B200004D760000BF
:1000E000BD930000159F0000159F0000159F0000A4
:1000F000159F0000159F0000159F0000159F000030
:10010000159F0000159F0000159F0000159F00001F
:10011000159F0000159F0000159F0000159F00000F
:10012000159F0000159F0000159F0000159F0000FF
:10013000159F00000000000070B506468AB03248E6
:100140000AF034FD3148324B00210360314B324C10
:10015000436003F031FF2AA3D3E900232060CDE9F7
:1001600000234FF0FF334FF0FF320AF064FD02220C
:100170004FF0FF3120680AF060FD00239422CDE9A2
:10018000073309933C23CDE903320593962303A952
:100190002068069303F0E2FF02F01EF825460146B0
:1001A00020680AF05DFD20680AF0C8FDB6F900106D
:1001B00055F8080B0AF069FD7668D6B928460AF0AA
:1001C0007AFAA37B66F30003A3732023102223840F
:1001D000124B83F8212383F8222383F8262383F804
:1001E000252383F8232383F8202383F824230AB0CC
:1001F00070BD3068A060B288B379AA80AB71E4E7C3
:100200000855005100000000690345ECA01A0020C9
:10021000D1340000B01A0020C01A002000E100E034
:100220000348044B834202D0034B03B11847704785
:10023000781000207810002000000000064B0749CD
:10024000C91A891048BF0131491003D0044B0BB1C2
:1002500001481847704700BF781000207810002030
:100260000000000010B5064C237843B9FFF7D8FF13
:10027000044B13B10448AFF300800123237010BD79
:10028000C4230020000000001CE3000008B5054B5B
:100290001BB105490548AFF30080BDE80840FFF7F2
:1002A000CDBF00BF00000000981200201CE300003A
:1002B00010B51E4C0AF0ADF8236F23F0070343F08E
:1002C000020323670AF0ACF8D4F82031002023F0B1
:1002D000070343F00103C4F82031D4F8403123F080
:1002E000030343F00103C4F84031D4F8603123F034
:1002F000030343F00103C4F86031D4F8403223F023
:10030000030343F00103C4F84032D4F8003223F071
:10031000070343F00103C4F80032D4F8083223F095
:10032000070343F00103C4F8083210BD00800050F9
:10033000064B0748DA1C121AC11E22F0030299422A
:1003400088BF002203490AF0BFBF00BF7810002019
:100350000810002030E30000064B0748DA1C121A90
:10036000C11E22F00302994288BF002200210AF038
:10037000A3BF00BFFC230020781000200348044ADC
:100380000449121A921009F0D3BD00BFA0E3000087
:10039000A0E30000FC2300206FF00100104B114A85
:1003A00010B59A60D3F888200F4942F47002C3F860
:1003B000882001F50052106641F2FF70506602205D
:1003C000C3F8D000BFF34F8FBFF36F8F08244FF4F3
:1003D00040330648C0F88041D36004600B6110BD13
:1003E00000ED00E0000000000080004400E100E0BB
:1003F000014B1868704700BF0C100020084B1B6FA2
:1004000003F00703022B04D0032B05D0012B05D0EA
:10041000FEE7044B18687047034BFBE7034870473F
:10042000008000500C10002014100020002D31011D
:1004300008B5FFF7E3FF054B1B6FC3F3013301332F
:10044000B0FBF3F0024B186008BD00BF0080005005
:10045000081000200048704700B4C404014B18681D
:10046000704700BF14100020054B1860054B1B6F30
:1004700003F00703032B01D1FFF7DABF704700BF7A
:10048000141000200080005000487047002D3101FA
:10049000174B9868C0F304400C280AD8DFE800F036
:1004A0000B0909090909072119091B1D1F0011481A
:1004B0007047002070479B6803F04073B3F1807F62
:1004C00011D0B3F1007F10D00B4A002B08BF1046AB
:1004D00070470A4870470A4870470A4870470A48F8
:1004E00070470A4870470A4870470A48704700BF7B
:1004F0000040015A405DC60000093D00C0EA2101EC
:1005000080BA8C010048E801005A62020024F4001D
:1005100080841E0040420F00014B1868704700BFE6
:100520001010002030B5154BADF5117D03AC0FCB8D
:1005300084E80F002C22002107A80AF0BDFE6825E0
:10054000FF234FF49472002146A88DF81D300AF065
:10055000B3FE2A46002112A80AF0AEFE2A46002168
:100560002CA80AF0A9FE00942CAB12AA46A907A851
:1005700000F0E0F80DF5117D30BD00BF40B3000084
:100580000122044B1A700023034A1370034A1370AC
:10059000704700BFC7230020C6230020C5230020CA
:1005A000002238B5134B144C1A700122134B1A70E9
:1005B00023689A78EAB1DA78DAB11A78510707D560
:1005C000986A09F065FD18B14FF4C03000F0CEF91B
:1005D00023681A7892070CD55D6809F048FD8542BA
:1005E00007D923684FF4C030596ABDE8384000F09D
:1005F00079B938BDC7230020C8120020C6230020C7
:1006000007B5024601200B4606490870064907480F
:100610000968009106490068096800F0FBFB03B017
:100620005DF804FBC5230020C4120020C012002086
:10063000C8120020044A05490548202312680968A9
:10064000006800F0ADBB00BFB8120020BC12002053
:10065000C0120020094B1A68D37892782AB1002B77
:1006600041F20C0018BF0020704741F20C0240F22A
:100670000570002B08BF1046704700BFC81200204D
:1006800008B5FFF715FE01F0FBFE01F099FDBDE88E
:100690000840014809F07CBFB012002010B5234B80
:1006A000234C18681B7992B08DF80C302388029087
:1006B000ADF80D30A37868468DF80F3009F076FF5D
:1006C00041F60833ADF810309DF80630BDF804202F
:1006D000C3F300038DF8183040F60223ADF828303C
:1006E00000230098ADF816208DF82A30CDF81200BE
:1006F00001F004FF01F008FF2046032101F00AFF8A
:1007000001F010FF01F0F4FE112102A809F062FFD0
:1007100003210AA809F065FF012009F069FF0028FC
:1007200040F2017008BF002012B010BD50B30000AD
:1007300056B3000070B5134C134E20601348144D8F
:10074000016014490A60144A1360049A134B1A603A
:1007500033780BB109F028FF2B78002BF8D0104B21
:100760001B784BB123689A784AB1DB7840F2057068
:10077000002B18BF002070BD40F20370FBE740F271
:100780000570F8E7C8120020C7230020C01200201F
:10079000C6230020BC120020B8120020C412002082
:1007A000C5230020F0B5421ED11C034685B018D8E1
:1007B0006E460D4C04F11007354620686168083418
:1007C00003C5BC422E46F7D104A90F3311F8014DE1
:1007D00012F8010F844204D19A42F7D1012005B0EA
:1007E000F0BD0020FBE700BF5AB30000F0B503687E
:1007F000044603F16043B3F5C03F4FF000009FB0E3
:1008000029D8826A636816699E4224D8B3F5801F8E
:1008100021D8656B06F14003AB425ED8B5F5801F69
:100820005BD82846FFF7BEFF002856D0284609F0BF
:1008300004FC80B16B6973B1022B0ED1AB69C4F1BA
:10084000040119444FF0FF32204600F02DFE244BE6
:10085000C31A584258411FB0F0BD40F20463284605
:100860000293FFF79FFF08B90020F4E700235F6BB6
:100870003846FFF797FF0028F6D0A6F150039F42B5
:10088000F2D8284603A909F0DFFB0028ECD0039D2D
:10089000AE42E9D8AC42E7D8B5F5801FE4D804A849
:1008A00009F07FFD21462A1B04A809F084FD04A855
:1008B00009F083FD00F086FE044600F09BFE23460F
:1008C0000090294605F1200204A800F001FE0290E4
:1008D0000298B0FA80F04009BDE70120BBE700BFF5
:1008E000E320BBDE70B54FF0FF3290B005460C46FA
:1008F00000F0DAFD1A4B98422ED11C22002101A8EB
:100900000AF0DAFC174B29466846043C009309F0CC
:10091000B5FD2146684609F0B1FD684609F0B7FD0E
:1009200009F02BFB0646B8B940F2022000F060F94E
:100930001C22314609A80AF0BFFC0B4B294608A827
:10094000089309F09BFD08A8214609F097FD08A827
:1009500009F09DFD09F011FB002010B070BD00BF33
:10096000E320BBDE010005430100064330B5044629
:1009700091B01C22002101A80AF09EFC114B2146D7
:100980006846009309F07AFD684609F080FD09F099
:10099000F4FA054698B940F2022000F029F91C2229
:1009A000294609A80AF088FC074B08A821460893A5
:1009B00009F064FD08A809F06AFD09F0DEFA0020DC
:1009C00011B030BD000002430000034310B58CB0ED
:1009D0001C220446002105A80AF06EFC0A4B019473
:1009E000049301230293094B01A904A8039309F07E
:1009F0003BFD04A809F04BFD09F0BFFAB0FA80F006
:100A000040090CB010BD00BF0000084304000020E6
:100A100013B501A801F030FB9DF80530012B27D15B
:100A20002B4A936DDB0313D4536B23F4FF0323F49E
:100A3000FE4343F4BC1343F4A0635363136B23F4EA
:100A4000704343F440431363136B43F4E063136355
:100A50009DF8043063B94FF000531B681D4B1B68B1
:100A60001D4B1B681D4B1B681D4B1B681D4B1B68DA
:100A70001D4AD2F8803043F00303C2F8803009F0F9
:100A80001AFB00F09FF809F066FA09F066FA18B14F
:100A90004FF4017000F0B8F8FFF744FD044609F088
:100AA0005EFA1CB140F203739C4206D140F2012071
:100AB00000F0AAF84FF4017005E0A4F20574012CCF
:100AC000F8D840F2032000F09FF8002002B010BDDB
:100AD00000C00050004000200080002000C0002026
:100AE000000001200040012000800050012313B5C8
:100AF0008DF806308DF807302D4BD3F894305A0618
:100B00000FD500F095F8A0F2022080B2072808D88F
:100B1000C923C340DB0742BF00238DF806308DF8A0
:100B200007304FF490335B68013308D14FF4027003
:100B300000F05EF800238DF806308DF807309DF840
:100B4000073063B14FF49030FFF750FE8DF8060088
:100B50009DF806301BB94FF4027000F049F89DF87B
:100B6000063013B36FF00102124B1A6643F6FF72A0
:100B70005A660022104BC3F8D020BFF34F8FBFF34B
:100B80006F8F08240D48C0F88040BFF34F8FBFF32C
:100B90006F8F4FF440310A4A1161C0F880414FF421
:100BA0009030D160986009F08AFA02B010BD00BFA1
:100BB000004000500090004400ED00E000E100E043
:100BC00000A000444CF23C32014B5A80704700BFF9
:100BD000000000204AF6C030044B5B8823F00F036E
:100BE0009BB21B1A58425841704700BF00000020BA
:100BF000044A08B51080FFF7EDFF10B94FF20F035C
:100C0000538008BD0000002008B5FFF7F1FFBFF3D7
:100C10004F8F0549054BCA6802F4E0621343CB606D
:100C2000BFF34F8F00BFFDE700ED00E00400FA05C1
:100C30004FF20F01084B5A888A4201D11888704739
:100C40003AB91B8840F20220012B18BF4FF4007004
:100C500070474FF4007070470000002030B5024626
:100C600000230C25054905FB03F460180C59944238
:100C700003D001330C2BF6D1002030BD04B40000AA
:100C8000F0B50023082787B0CDE9013315463B4670
:100C9000009704AA044609F0CDFA41F203039842F2
:100CA000064623D194F8433053B13A46E06C04A988
:100CB00009F081FB04AA3B461146A06C09F060FBD9
:100CC000059A049B6A6094F843202B6052B9094A44
:100CD000934207D0084A934204D00822E06C04A94A
:100CE00009F069FB6B68236500236365304607B034
:100CF000F0BD00BFF70A0AF7FC0404FC2DE9F04739
:100D000099465B6804460F469046002B3ED011F092
:100D100003033ED19B6A006E1B6981181D1DA94209
:100D20001BD31C33984218D2A842024638BF2A4629
:100D3000994294BFC2EB010AC2EB030A101A3E1893
:100D4000C5F1680010443146524620440AF0BCFA0E
:100D50005246FF2130460AF0AFFA226E0E4B9A42FD
:100D60000BD80E4902EB0800884206D99B1AFA58A4
:100D7000C4F880204FF0FF32FA50D9E900354246DE
:100D80003946206EA847236E434423660020BDE801
:100D9000F08741F20200FAE70480010007800100B9
:100DA0002DE9F04100254FF0FF37044688461646EE
:100DB00003F0200380F842301822FF21C0E91855C3
:100DC000A0F8405080F84350A0F8445080F84650B6
:100DD000C0F8887068300AF06FFA88222946C4E9A2
:100DE0001286C4F88070C4F8847004F190000AF090
:100DF00063FA074BC4F82071C4E9463584F82451DE
:100E000016B1304609F0CDFA0020BDE8F08100BFF0
:100E1000000101012DE9F04FA5B09946CDE911235C
:100E2000002304460E464FF001082E9D139313999C
:100E300078E094F846300C2B70D8062B4BD908FA82
:100E400003F212F4286F40F00B8212F4885F40F036
:100E5000B7810A2B66D1DFF8B4A3636D072B00F2CC
:100E600028814FF0080B382316AA2046CDE90188C7
:100E7000CDF800B011A909F0DDF941F203030A90A1
:100E80000A9A9A4200F03F810A9B5BE0A3F10E02AE
:100E9000052A00F28F82DFE812F000030600F50059
:100EA00032023202FE020027636D0F2B00F28A80AD
:100EB000102314AA009320464023CDE9018711A9ED
:100EC00009F0B8F941F203030890089A9A4200F039
:100ED000CB80089B36E0013B052B27D8DFE813F0D9
:100EE00074006E000600C001DC0078010127636D0C
:100EF000072B00F2DE80082314AA0093204640232B
:100F0000CDE9017711A909F095F941F203030B909E
:100F10000B9A9A4200F021810B9B13E0A3F10D0282
:100F2000062AB3D9494584D3002065E014AA204697
:100F300011A9FFF7A5FE41F203020590059B93421C
:100F400008D0059B049341F20303049A9A423FF4AC
:100F50006EAF50E0159A1499226500226265A94A85
:100F6000914240F00581022284F84620EAE70823F6
:100F700014AA009320464023CDE9018711A909F066
:100F800059F941F203030690069A9A4201D0069B52
:100F9000D8E7149B03F07F43B3F1407F05D01323C0
:100FA00084F8463041F20903CCE7159BD90706D5F2
:100FB00094F8423043F0010384F842300027636D17
:100FC000072BD4D9012300E1204614AA11A9FFF769
:100FD00057FE41F203030790079F9F420FD0079FE0
:100FE00041F203030497049A9A423FF420AF049B12
:100FF0000BB10023F370049825B0BDE8F08F14986E
:10100000FFF72CFE28B9132341F2080784F8463075
:10101000E6E7437994F824219A4205D9132341F253
:101020000E0784F84630DBE7026877498A4205D02C
:101030000289D20748BF013384F8243194F8423042
:10104000D9070DD5028994F84330920706D53BB1F4
:10105000132341F2010784F84630C1E7002BF7D093
:10106000037984F84630BBE7D4F848A000F0DAFAF8
:1010700080230221CDE9000315AA0123504609F07F
:101080005AF911E7226D0123A265002284F843304A
:10109000E26584F84630CAE600213C2215A8149186
:1010A00001270AF009F9D4E91432934204D884F8EC
:1010B000467041F2030345E7009314AA40232046FB
:1010C000CDE9017711A909F0B5F841F203030990C0
:1010D000099A9A4201D0099B34E70DF1500C06F1B0
:1010E00008030DF1680E624603CA72451860596024
:1010F000944603F10803F6D110681860337843F082
:1011000001033370CFE7337843F004033370179B48
:10111000B36273785F071CD50020236DCDF850A013
:10112000C4F8843094F84530606643F0020384F8D4
:101130004530EF686FB104222B6814A9B847606E80
:101140002B685A46EF6816A90830B847636E10330B
:1011500063660B2384F846307FE63378159A43F0B4
:1011600002033370149B7360236D083B73622AB1D2
:10117000132384F8463041F20103E3E6042384F8A4
:10118000463094F84530626643F0010384F84530F8
:10119000ADE6042314AA009320464023CDE901774D
:1011A00011A909F047F841F203030C900C9A9A42F6
:1011B00001D00C9BC6E6226D149B042A01D923663C
:1011C0000127636D032BE4D9092384F8463070E7C7
:1011D0000023636607235CE79F4251D89F4228BFE4
:1011E0001F46402314AA2046CDE90188009711A983
:1011F00009F020F841F203030D900D9A9A4210D0A5
:101200000D9B9FE6EB17A603F90707F9EB17A65E00
:10121000402F28BF40279F4228BF1F4627F00307C3
:10122000DFE794F846B0BBF1070F2FD0042FC7F1CA
:10123000040A88BF4FF0000A14AB5246FF21D819A8
:101240000AF03AF8BBF1090FBA442DD12B465246A9
:10125000204614A9FFF752FD0D900D9B002BCFD116
:10126000D4E914739F427FF6ADAEFF1ADDE9123266
:101270009B1A94F84020032F1344ADD9032BC7D8F1
:10128000204611A908F0B5FF00235BE6D5F808A0B9
:10129000BAF1000FCAD02B683A46606E14A9D04745
:1012A000636E3B446366DBE7BBF1040F1DD17378CB
:1012B0009807D5D5EB68002BD2D0626E042A0BD8E4
:1012C0000AEB0203062B07D915AB9B1A1A68C4F860
:1012D00084204FF0FF321A60EF682B685246606E30
:1012E00014A9B847636E5344DCE7BBF10B0FB7D1C9
:1012F00073785907B4D5EF68002FEED1B0E700211D
:101300008A6A496B1269503A91423FF634AF112B09
:101310000FD194F81831002B7FF454AE41F206033C
:101320000E930E9A9A4202D1132384F846300E9BF4
:1013300008E694F84430002B7FF444AECDE9013345
:10134000402314AA0093204611A908F073FF41F22C
:1013500003030E900E9A9A42E9D1E06C09F02DF841
:1013600094F81831A3B104F1B4030093E06C04F1D4
:1013700094031CAA14A900F0ABF80E900E9BA3B125
:101380000023F370132384F8463041F20603D9E5B5
:10139000D4F84CA000F016F9074600F02BF93B46B4
:1013A00000901CAA504614A9E5E70123F37084F8C5
:1013B000443007E600234FF00408CDE9013314AAB6
:1013C00040232046CDF8008011A908F033FF41F2F8
:1013D00003030F900F9A9A4202D00F9B04930AE6E0
:1013E000D4F888202E4B9A4205D0132384F8463037
:1013F00041F20503F2E70123F37094F84530DA0770
:1014000007D5EF682FB1424640462B6804F18401AE
:10141000B84794F845309B0707D5EF682FB10422F1
:101420002B68104604F18401B847236E63B36F68DC
:1014300057B34FF0FF3304F180080422414610A84F
:10144000109309F00FFF20B1042241462B68154884
:10145000B84704F168090422494610A809F002FFC0
:1014600090B100239B6A1422D3F8108004F16C0120
:1014700008F10800D5E90037B847D5E9003704225C
:10148000494608EB0200B8470123B3700E2384F8E5
:1014900046300023A2E70023F37041F20700ABE5DA
:1014A000E320BBDE0480010030B501240025074B9A
:1014B00001445C609D601A61DC60884201D1586A19
:1014C00030BD10F8012B1A62F7E700BF008008500A
:1014D0002DE9F04399B00E4615461C460746DDF847
:1014E0008090002861D000295FD0002A5DD0002BB9
:1014F00058D02F4B2F4AB9F1000F14BF9846904691
:101500001C22002111A809F0D7FE2B4B414610A840
:10151000109308F0B3FF202110A808F0AFFF0122BC
:10152000264B019402920393CDF8109005920693F6
:1015300054B1B9F1000F07D001A910A808F08AFF33
:1015400004A910A808F086FF079701271B4C07A9DC
:1015500010A80897099408F07DFF0AA910A80A9618
:101560000B970C940D950E970F9408F073FF0DA92F
:1015700010A808F06FFF10A808F089FF104B009327
:101580004FF098435A6CD202FCD55B6D40F2046078
:1015900003F470230093009B002B08BF002019B0B8
:1015A000BDE8F083DFF80C80AAE740F20160F6E7BF
:1015B0001F2400801F24FC8400000106200000205E
:1015C0007856341200B599B020220021684609F0FF
:1015D00073FE40230021684608AA00F001FE20F0B7
:1015E00010000128024818BF002019B05DF804FB64
:1015F0004CE30F0000B599B020220021684609F0A5
:101600005BFE40230021684608AA00F0E9FD20F0B7
:1016100010000128024818BF002019B05DF804FB33
:101620006CE30F000048704786E20F002DE9F34796
:101630001446DDE90A920D461F4600284DD14CB3F1
:1016400013683F2B2AD8516851B32549002F14BF86
:10165000B846884603F03F061B19136022BF536843
:1016600001335360FEB93F2C0ED9A3092A460093DB
:1016700041463B46002000F083F824F03F031D4420
:1016800004F03F0434B100262246294609EB060047
:1016900009F01AFE002002B0BDE8F087B846D9E78D
:1016A000DFF83C80D6E7C6F1400A5445ECD3294622
:1016B000524609EB060009F007FE01232644009379
:1016C0004A463B4641460020A6F1400400F058F847
:1016D0003F2C5544D6D9B846C7E70248DBE700BFE0
:1016E000D4B4000080AFFFFF2DE9F0411746146825
:1016F00086B01E46E3008DF80F3063098DF80E307A
:10170000630B8DF80D30630D8DF80C305368054672
:10171000DA0002EB54728DF80B2004F03F045A09F2
:10172000372C8DF80A204FEA53324FEA53538DF885
:101730000920884694BFC4F13802C4F17802CDE98B
:1017400000178DF808300D4903460020FFF76EFFA3
:1017500008222B460020CDE900870DEB0201FFF7A0
:1017600065FF284605F1200350F8042B984246F8FF
:10177000042BF9D1002006B0BDE8F08194B400003C
:10178000F0B593B00E4617460446202200210AA861
:101790001D4609F091FD01204FF000520197029083
:1017A0000392049605900692079508900992002CE2
:1017B0002FD1189C184BA40121460AA80A9308F0BF
:1017C0005DFE039B04A91C430394069B0AA843F0F7
:1017D00020030693099B43F02003099308F03AFE87
:1017E00001A90AA808F036FE07A90AA808F03CFEDD
:1017F0000AA808F04CFE4FF098435A6CD202FCD570
:101800005B6D13F4702F14BF6FF06F00002013B0E6
:10181000F0BD6FF07100FAE70004010341F6713387
:10182000124A30B5D469124DD3639368A84204F4C8
:10183000803423F4401306D893600E4AD2F818324D
:1018400023F002030AE043F4801393600A4B9842AA
:10185000F3D9084AD2F8183243F00203C2F818321A
:1018600014B10022014BDA6330BD00BF0000035009
:10187000005A620200C0075080F0FA0238B5134BDC
:101880000546D3F820010C4600F0070004281AD8BA
:10189000DFE800F003090D111500012305B12860F0
:1018A00004B1236038BDFEF7A3FD0423F6E7FEF77D
:1018B000D5FD0323F2E7FEF7EBFD0523EEE7FEF788
:1018C000E3FD0223EAE700231846E7E70080005023
:1018D00037B50C460021114B0191D3F880310546F4
:1018E00003F00303022B0ED0032B11D0012B03D1E5
:1018F00001A8FFF7C3FF0D210DB1019B2B6004B1BF
:10190000216003B030BDFEF7C3FD05210190F3E770
:10191000FEF7BAFD02210190EEE700BF0080005003
:1019200038B5104B0546D3F840310C4603F003039D
:10193000022B0BD0032B0DD0012B0FD108F005FB90
:10194000082305B1286004B1236038BDFEF7E4FD2B
:101950000723F6E708F0FCFA0923F2E70123002049
:10196000EFE700BF0080005038B5104B0546D3F8B4
:1019700060310C4603F00303022B0BD0032B0DD078
:10198000012B0FD108F0E1FA082305B1286004B15A
:10199000236038BDFEF7C0FD0723F6E708F0D8FA4C
:1019A0000923F2E701230020EFE700BF0080005089
:1019B00038B5144B0546D3F800020C4600F007007A
:1019C00004281BD8DFE800F003090D1115000123DE
:1019D00005B1286004B1236038BD08F0B6FA0823C9
:1019E000F6E7FEF799FD0723F2E708F0B1FA0923BD
:1019F000EEE7FEF71DFD0C23800AE9E700231846F9
:101A0000E6E700BF0080005038B5144B0546D3F818
:101A100008020C4600F0070004281BD8DFE800F09D
:101A200003090D111500012305B1286004B12360DD
:101A300038BD08F08AFA0823F6E7FEF76DFD0723A4
:101A4000F2E708F085FA0923EEE7FEF7F1FC0C2334
:101A5000800AE9E700231846E6E700BF008000504F
:101A600038B5104B0546D3F840320C4603F003035B
:101A7000022B0BD0032B0DD0012B0FD108F065FAF0
:101A8000082305B1286004B1236038BDFEF744FD8A
:101A90000723F6E708F05CFA0923F2E7002318466B
:101AA000EFE700BF0080005038B5104B0546D3F873
:101AB00000310C4603F00303022B0BD0032B0DD097
:101AC000012B0FD1FEF7CAFC032305B1286004B136
:101AD000236038BDFEF720FD0723F6E708F033FA50
:101AE0000623F2E701230020EFE700BF008000504B
:101AF000032814D005D8012805D0022809D00020D9
:101B000005E00F28FBD1084B186FC0F301300130FE
:101B10007047054BD3F89000C0F30460F7E7024B21
:101B2000186FC0F38020F2E7008000501FB500233B
:101B30000193252817D8DFE800F0131A1D272C364B
:101B40003B51565B60656A78161A401616561A277E
:101B50002C27361A5127783B3B3B3B2727275B60D6
:101B6000FEF74CFC0190019805B05DF804FBFEF710
:101B70005FFCF7E7FEF742FC02460220FFF7B8FFE2
:101B8000B2FBF0F20192EEE7FEF752FC02460320B0
:101B9000F4E7FEF74DFC02460320FFF7A9FFB2FB76
:101BA000F0F25208EEE7002101A8FFF791FEDAE714
:101BB000002101A8FFF762FED5E702934FF0E02372
:101BC0001B695B0705D5FEF733FC0290029B01936E
:101BD000C9E703A902A8FFF7A3FEF7E7002101A8C0
:101BE000FFF79EFEBFE7002101A8FFF7BDFEBAE7A1
:101BF000002101A8FFF7DCFEB5E7002101A8FFF7EF
:101C000003FFB0E7002101A8FFF74EFFABE7094B48
:101C1000D3F8803003F00303022BA8D0032B01D0AC
:101C200000209FE7FEF734FC9CE7002101A8FFF7A6
:101C300017FF98E70080005008B50120FFF776FFF6
:101C4000BDE808400349884294BF012102210320D6
:101C500000F002B880F0FA02032810B50C4627D035
:101C600004D8012804D0022817D010BD0F28FCD1B9
:101C700008F0C3FB08F0C9FB124A013C136F23F4C0
:101C8000405343EA04331367FEF7D2FB0021FFF70A
:101C9000C5FDBDE81040FFF7CFBF0A4A4C1ED2F881
:101CA000903023F0F85343EA0463C2F89030DCE745
:101CB000044A4C1E136F23F4806343EA84231367A2
:101CC000D3E700BF008000501FB5002301932528F3
:101CD00021D8DFE800F013202020202A2F454A4F8A
:101CE00054595E7120203420204A202020202A20B0
:101CF0004520712F2F2F2F2020204F54314B1B6F49
:101D000003F00703013B032B05D8DFE803F00C02C7
:101D1000080A04230193019805B05DF804FB03232E
:101D2000F8E70623F6E70223F4E7002001A9FFF70E
:101D3000CFFDF0E7002001A9FFF7A0FDEBE702933C
:101D40004FF0E0231B695B0705D5FEF771FB0B2302
:101D50000393039BDEE703A902A8FFF7E1FDF8E781
:101D6000002001A9FFF7DCFDD5E7002001A9FFF75E
:101D7000FBFDD0E7002001A9FFF71AFECBE700200A
:101D800001A9FFF741FEC6E7002001A9FFF78CFE7D
:101D9000C1E70C4BD3F8803003F00303022B03D0D0
:101DA000032B05D00023B5E7FEF742FB0B23B1E779
:101DB000FEF76EFB0523ADE7002001A9FFF750FEFB
:101DC000A9E700BF00800050F8B504460020FFF7E7
:101DD0007BFF032800F0818045F60E0302213F4A75
:101DE000C2F880303E4B9962012103F5805399621D
:101DF000936DD903FCD4D4E900131B0543EA0163B6
:101E0000E17B94F820500B43217BE77E43EA0143BA
:101E1000617B6D0143EA0133A17B43EA81131361C6
:101E20009169D4E904031B0643EA806301F0004191
:101E30000B43A17E94F823000B43217E43EA014328
:101E4000617E43EA01239361136AE66923F00D037F
:101E500094F8221043EA870366BB1362966A94F8EB
:101E6000213045EA031326F033052B4343F00103E9
:101E700093621C4D194A936D35EA0303FBD1022589
:101E8000174B9D62936D5B00FCD41369A56823F426
:101E9000700343EA055313614FF00042104B9A61FF
:101EA00019B9022203F580539A6278B901220E4BC8
:101EB0009A620BE0334343F008031362936A23F002
:101EC000330303432B4343EA4103936294F82430E2
:101ED0001BB1024B054AC3F88020F8BD00C000507A
:101EE00000D000500300014000E00050F1A7FFFFC8
:101EF000014B93F900007047C8230020014B188064
:101F0000704700BF54100020F0B5114A114C124E1A
:101F100000F00105E3695F0713D40DB9334213D113
:101F200003EA00078F4207D10B4A1A40002A0CBF70
:101F300000206FF00100F0BD013AEBD16FF002001C
:101F4000F9E74FF0FF30F6E76FF00100F3E700BF6D
:101F500080969800000003500200010038B541F659
:101F6000713301220C4C0021E569E3630B4B05F44E
:101F70008035DA600223606121202361FFF7C4FF0E
:101F800010B92120FFF7C0FF0122054BDA600DB127
:101F90000023E36338BD00BF00000350001003506E
:101FA000002003502DE9F04F01274FF45025302633
:101FB0002A4CDFF8B4C0DFF8B4E0CCF8047044F881
:101FC0002050002441F6713506FB00E6F4653466C6
:101FD0003467234CDFF89890D4F81C80E563E568FB
:101FE000DFF890A03D43E56007FA00F04BB9E268E6
:101FF00018F4803F22F00102E26029D10020BDE800
:10200000F08F01F5005505EA09056D1A9D4228BFBC
:102010001D466161D4F81CB0AF081BF0040F19D144
:10202000013F3F0147F060577766B266C6F86CA083
:10203000CCF82400DEF834703842FBD0094F294434
:1020400078630427CCF828002A4427615B1BCDE77E
:10205000E363D3E74FF0FF30D1E700BF0040045007
:1020600000000350002004500010045000000450F1
:1020700000E0FFFF18000350054B5B69C3F38512B6
:10208000827003F03F021B0B42700370704700BF69
:1020900000C00750014B986CD96C70470080E00F6E
:1020A00038B50446054D08F0ECFD0FCC0FC594E89B
:1020B0000F0085E80F00002038BD00BFCC120020C3
:1020C00047F6FF739A42F0B572D0022972D83A4BA4
:1020D0005B5C022B6ED8394DDF0005EBC304A178A1
:1020E00015F83330012938BF0121012B13D1002508
:1020F000E078401AA84202D80844C0B2F0BD431BA1
:102100006668A0EB530336F913609642D4BF1D46B0
:1021100003F1FF30EEE760680028EFD0B0F900402F
:10212000944204DBB0F902409442B8BF144683885D
:102130003D44FF2B19BFC8224FF0280CB0F90620F0
:10214000B0F908C0A2EB04030CBF0126002693FBE4
:10215000FCF333446E781BB29E4201DD002B01DAA2
:10216000731E1BB24FF47A7C01339BB2071D5D1EB8
:102170002DB24FEAC50E00EBC505EA88AD689E4258
:1021800014FB025222EAE27202F15C02B2FBFCF2A0
:1021900004DD37F8335001339542E8D200EB0E03EB
:1021A0009888904228BF1046884238BF0846A4E766
:1021B000FF20A3E70020A1E7F4B40000CC12002028
:1021C00008B50448FFF76CFFBDE80840012008F09F
:1021D0007BBD00BFF8B400000048704756100020D7
:1021E0001FB5044608B302B3402B1ED193071CD180
:1021F000C1B1012919D14FF400710D4B01920B436C
:1022000023600023C4E90133E36101230293094BF6
:10221000204601A9039308F027F9204608F086F923
:1022200004B010BD4FF48071E7E72120F8E700BF4C
:10223000010008FF400000202DE9F041012905467A
:102240000E4690461F4692B04AD8046824F04003D8
:10225000802B02D0B4F5807F45D11C2200210BA831
:1022600009F02AF8234A244B0121012E08BF134606
:102270000A932B1D0193E408204B44F00054029173
:102280000AA80394CDF8108005910693079708914A
:1022900001A9099308F0DEF804A90AA808F0DAF801
:1022A00007A90AA808F0E0F829680AA8C90808F0F0
:1022B000E5F810210AA808F0E1F808F033F9A8B908
:1022C0000AA808F0E4F84FF098435A6CD202FCD503
:1022D0005C6D08F029F904F4702012B0BDE8F081BB
:1022E0006FF02000F9E76FF07100F6E74FF0FF3074
:1022F000F3E700BF0001000400010104100000200A
:102300002DE9F04F074689469846164699B082B1A6
:1023100015683B6823F04002802A03D0B3F5807F24
:1023200040F0A68000244C4505D306B1356000205E
:102330007BE01546EDE75DB1239B229A1B5D525D64
:1023400001355340249A05F00F0513550134EAE78F
:10235000A9EB040ABAF10F0F0BD8239B03EB040A75
:10236000249B1C44239B03EB090BDA4560D14C46AC
:10237000D9E71C22294611A808F09EFF3E4B3A6877
:1023800010933B1D01930123D20842F000520293A7
:1023900003923A4ACDF8108005930692CDF81C803E
:1023A00008930992239A249922442AF00F0A0A9248
:1023B00021444AF000520B9310A80C920D9101A9F0
:1023C0000E930F9208F046F804A910A808F042F8FE
:1023D0000AA910A808F03EF80DA910A808F044F8C2
:1023E00007A910A808F040F8396810A8C90808F033
:1023F00045F8514610A808F041F808F093F890B954
:1024000010A808F044F84FF098435A6CD202FCD55B
:10241000586D544400F4702B08F086F8BBF1000F9F
:102420009BD0584601E04FF0FF3019B0BDE8F08F67
:1024300055B1229A1AF8013B525D0135534004F818
:10244000013B05F00F0590E7424601213846229BEB
:10245000FFF7F2FE0028E8D108F1100212F8013D62
:102460000133DBB21370002BE3D19045F6D1E0E7E6
:102470006FF01F00D9E700BF030300041000002025
:1024800030B58BB06C46174D0FCD0FC40FCD0FC4B8
:1024900095E8030084E80300134BD3F84C211203A2
:1024A0001CD5A3F5FE431C884FF6FF739C4208BF62
:1024B0008C248DF81940FFF71BFD204480F30800A1
:1024C0008DF818000948FDF7CFFF6846FFF77CFC40
:1024D0003220FFF713FD00200BB030BDD3F8504180
:1024E000E4B2E6E7E4B500000080E00F00F0490246
:1024F000014808F0AFB800BFEC120020014808F016
:102500007EB800BFEC120020014800F053B800BFB5
:10251000EC1200200A460146014800F07BB800BFDB
:10252000EC120020014800F0B5B800BFEC1200200A
:102530001FB50A79064B02920A68083101920222FD
:1025400000920CCB08F066F905B05DF804FB00BF03
:1025500018B6000030B50B7985B00333029301F152
:102560004403019302230C460546114A009314319B
:102570000CCA08F04FF9238A04F12C010293E36896
:1025800028460193237A009394E80C0008F042F95E
:102590000546237AA4F845002279216884F844305E
:1025A00004F1470008F090FE284605B030BD00BF9A
:1025B00010B6000038B50546124B134C94E80300E2
:1025C00083E8030019462846FFF7B2FFD4E9020169
:1025D00010220E4B83E80300194628461A72FFF7B3
:1025E000B9FFD4E904010222094B18341A7283E8B6
:1025F0000300DC60194628461A82BDE8384008F01E
:1026000007B800BFF01300202CB60000981300207C
:102610006C130020F8B504460D4B0E4D0F46D5E95E
:10262000070183E80300194620461646FFF780FF9E
:10263000D5E909010222084B1A7283E80300DF6022
:10264000194620461E82BDE8F840FFF783BF00BF51
:102650004C1300202CB60000F412002010B50C46DC
:1026600030B907F07FFC034B186023600423A3807C
:10267000002010BD4016002010B50C4630B907F000
:102680006FFC034B186023600423A380002010BD5F
:10269000441600202DE9F74306466D464FF0080921
:1026A000404C414B414F94E8030083E80300194636
:1026B0003046FFF73DFFD4E9020187E803002846D2
:1026C0003B4987F8089007F09EFF95E8030007F163
:1026D0000C0383E8030039463046FFF73BFFD4E99B
:1026E00004010C234FF00208324F87E8030028460C
:1026F00031493B7207F087FF95E8030007F10C03AF
:1027000083E8030039463046FFF724FFD4E9060189
:102710002A4B2B4A83E803001946304683F8088089
:10272000DA60A3F81090FFF715FFD4E90801254BF4
:10273000254A264FDA60012283E803001946304615
:102740001A8283F80880FFF705FFD4E90A0187E8B9
:10275000030028461E4987F8088007F054FF95E8D3
:10276000030007F10C0383E803003946194F304694
:10277000FFF7F0FED4E90C0187E80300284616496C
:1027800087F8088007F03FFF95E8030007F10C0386
:1027900083E803003946304603B0BDE8F043FFF755
:1027A000D9BE00BFE0B6000020160020C8150020EA
:1027B0009DA600007015002085A6000018150020B9
:1027C000D6B60000C0140020D5B600006814002062
:1027D00079260000101400205D2600007FB500233C
:1027E0000130CDE9043380B2054BCDE901016946E2
:1027F00004200093039208F02EF807B05DF804FB64
:10280000C92300201B22014B1A807047A4230020FB
:10281000F7B50346CDE9001207460E4615464FF4BC
:102820008040094A094907F028FF00220123114688
:102830000420074C237067706680257103B0BDE8E3
:10284000F040FFF7CBBF00BFB8B8000018B70000DA
:10285000C9230020034610B5094A044609494FF42C
:10286000804007F00AFF0322074B02201A70002263
:10287000A3F801401146BDE81040FFF7AFBF00BF0D
:10288000A1B800004CB70000C923002030B50C46A9
:1028900085B004A901E90C00054603460A4A4FF435
:1028A00080400A49009407F0E8FE05220320084B07
:1028B00002991A709DF80C205D705C8005B0BDE82F
:1028C0003040FFF78BBF00BF86B8000058B700004C
:1028D000C923002037B5034605460C4600914FF446
:1028E0008040094A094907F0C8FE0722084B042026
:1028F0001A7000221146A3F80150A3F8034003B058
:10290000BDE83040FFF76ABF6BB800007CB700003D
:10291000C923002038B5094A05460C460B464FF43A
:102920008040074907F0A9FE0B22064B29461A7082
:1029300000202246BDE83840FFF750BF5BB80000DA
:10294000A1B70000C923002008B54FF48040074A12
:10295000074907F092FE1322064B1A700022BDE8C9
:10296000084011461046FFF739BF00BF4AB80000C3
:10297000B0B70000C923002073B5034614460546CE
:102980000E4600924FF48040084A094907F075FE50
:102990000922084B31461A70A21C5A7003202246A5
:1029A0005D8002B0BDE87040FFF718BF34B800008A
:1029B000B6B70000C92300202DE9F3411C4690461C
:1029C000CDE9001307460E4603460A4A4FF48040FD
:1029D000094907F052FE1123224641460520074DC2
:1029E0002B70231D6B706F80AE8002B0BDE8F0418C
:1029F000FFF7F4BE19B80000D4B70000C9230020C7
:102A000070B50D4603780C4A04460C494FF48040DB
:102A100007F033FE00230A4E691E204689B27380F8
:102A200000F040F8024628B171882078BDE8704077
:102A3000FFF7EEBE70BD00BF11B80000FEB700008A
:102A4000A4230020024610B5F8B1114B19688888FC
:102A500090421AD398880024904281BF01200968CF
:102A6000988099609868998820B904B198604FF669
:102A7000FF7203E08A4203D10CB198609A8010BDC6
:102A800001310124006889B2EEE70020F7E700BFBA
:102A9000481600204FF6FF72014B18609A8070476D
:102AA000481600202DE9F04705780446122D0E4601
:102AB00088B017D8012D18D9AB1E102B15D8DFE818
:102AC00013F0160014002F0014005A0014000D011A
:102AD00014009F001400140014001400140050018E
:102AE0001400CC00522D00F0DE8006253FE00229C4
:102AF00040F0B481B0F80130B24A4FF48040B2499E
:102B000007F0BBFDB4F80140B4F5007F28BF4FF4D7
:102B100000742046FFF79EFEAC4B1C80002526E08B
:102B2000042924D1B0F80330A94A0093B0F8013049
:102B3000A8494FF4804007F0A0FDB4F8017006AC3E
:102B4000BEB22146304607F0E3FD054618B19F4B63
:102B50005F800A250BE09DF81C303146022B18BF20
:102B6000022094E80C0008BF0120FFF78FFE2846E2
:102B700008B0BDE8F08702278E1FB6B20196B0F804
:102B80000330954A0093B0F8013094494FF48040E7
:102B900007F073FD04F10508E31D019600938DF81D
:102BA0001470CDF810804246059BB4F80310B4F8B9
:102BB000010007F0BAFD4FF6FF76B042054606D198
:102BC000A278637843EA0223804A5380C1E7002356
:102BD000CDE90033CDF818808DF81C7008AB0130BA
:102BE000314613E90C0080B207F09FFD0146B04268
:102BF0001CBF00F1FF3189B22846FFF76BFE8DE75D
:102C0000022940F02B81B0F80130754A4FF4804022
:102C1000744907F032FD3146B4F8010007F0D7FDE2
:102C20006A4E054628B16378A27843EA022373808E
:102C30009DE733880146013BADF81030B4F8010040
:102C400004AB06AA07F0D5FD05460028EBD1BDF878
:102C500010100698FFF75EFE89E78E1EB6B200964A
:102C6000B0F80130604A4FF48040604907F005FD3C
:102C70000821B4F8010007F0AAFD054630B1A2789A
:102C8000637843EA0223514A538070E70146334692
:102C9000B4F80100E21C07F081FD05460028EED1E2
:102CA000FFF752FE3AE78E1EB6B20096B0F801303A
:102CB0004F4A4FF480404D4907F0DFFC0421B4F83F
:102CC000010007F084FD014600287FF427AF33465A
:102CD000B4F80100E21C07F061FD1FE70E1FB6B259
:102CE000022E02D0102E40F0B9800025B4F8033037
:102CF0004FF480400093B4F801303E4A354907F064
:102D0000BCFCCDE90055631D06938DF81C6008AB33
:102D100013E90C00B4F80310B4F8010007F005FD46
:102D20004FF6FF7398420646284F05D16378A27884
:102D300043EA02237B800CE73B882946043BADF83D
:102D40000E3004AA0DF10E0307F053FD054608B13D
:102D50007E800CE73046BDF80E200499FFF70CFE8C
:102D600005E70E1FB6B2022E01D0102E76D1002537
:102D7000B4F803304FF480400093B4F801301E4A99
:102D8000144907F07AFCCDE9005504F1050AF6B2C2
:102D90008DF81460CDF810A05246059BB4F80310CE
:102DA000B4F8010007F0C1FC4FF6FF79484507462B
:102DB000DFF8188022D16378A27843EA0223A8F8CA
:102DC0000230C6E684B900004CB70000A4230020FE
:102DD00071B90000C9B800005EB90000E7B8000092
:102DE00056B9000010B900004DB90000B6B7000098
:102DF00044B9000036B9000023B90000CDE9005500
:102E0000CDF818A006AD8DF81C60013095E80C00D7
:102E1000494680B207F089FC0446B8F800304845BE
:102E2000A3F1060318BF00F1FF342A46ADF80E30B7
:102E30004FF0000138460DF10E0318BFA4B207F0A1
:102E4000D8FC054610B1A8F8027090E62146384635
:102E5000BDF80E30069AFFF7AFFD88E6042586E63A
:102E60000022014B1A6070475416002003291FB539
:102E700003460A461CD90188081D824218D304D88B
:102E80005888042805D0062807D0012005B05DF831
:102E900004FB181DFFF7B4FDF7E70023CDE902336B
:102EA000044B694600930223019307F0D4FCECE73E
:102EB0000020EBE76410002037B500220DF1070079
:102EC000114600F05FF89DF807300C4C0BB1002361
:102ED000236021680A4DC1F5017292B229440DF1B7
:102EE000070000F04FF82368C11828462160FFF75B
:102EF000BDFF08B10023236003B030BD541600208D
:102F00005816002010B504464FF4807300210E4A75
:102F10000E4807F033FD4FF4807300210C4A0D4832
:102F200007F02CFD2046FDF707F907F0E8FC00F05C
:102F30002BFD07F016FE830705D500F0EFFBBDE87B
:102F4000104000F045BA10BD8C1900207418002004
:102F50008C1800205C18002008B513460A4601466C
:102F6000024807F0C9FDC0B208BD00BF74180020B8
:102F700008B5034807F00BFD003818BF012008BD55
:102F800074180020F8B50E461746044607F052FAAA
:102F9000214605463B463246044807F0ADFD04464F
:102FA000284607F04BFA2046F8BD00BF5C18002009
:102FB00008B5034807F0EBFC003818BF012008BD36
:102FC0005C180020F8B50E461746044607F032FAA2
:102FD000214605463B463246044807F058FD044664
:102FE000284607F02BFA2046F8BD00BF74180020D1
:102FF00010B50C460146044807F0A8FDA04234BFB6
:103000000020012010BD00BF5C180020F8B50F465D
:10301000114606461546FFF7EBFF044628B12B463E
:103020003A463146024807F032FD2046F8BD00BF5F
:103030005C18002010B5034CA07900F0FFFD0023C0
:10304000236010BD8C1A00201FB50B4C0B4AA37ACD
:103050000B490393637A4FF480500293237A0193D0
:10306000E3790093A37907F008FBA01D00F06AFD47
:103070000023236004B010BD8C1A002023BB000085
:1030800093B900001FB5104C104AB4F80D304FF43E
:1030900080500293B4F809300D490193A37900934D
:1030A000B4F8073007F0E9FAB4F80710A07900F097
:1030B0007BFDB4F80D10B4F8090000F089FD002381
:1030C000236004B010BD00BF8C1A0020F5BA0000C8
:1030D000BCB90000014B9980186070478C1A002021
:1030E0000022014B1A6070478C1A0020034A1368B3
:1030F0001BB19288824200D1184770478C1A002079
:10310000014B187018467047D0230020162838B598
:1031100003464FF0020514BF034613230B4C0C4A21
:103120004FF480500B496370257007F0A6FA2946CA
:10313000204600F065FD00F0E3FE074B074A05302E
:103140001A60627898809A7138BD00BFD023002041
:103150006EBB0000F3B900008C1A0020353000006F
:1031600030B504460378794A4FF48050784985B0E9
:1031700007F083FA23780C2B0AD80C2B0BD8DFE846
:1031800003F05A3F790A0A0A0A0A890A0A0A16004B
:10319000142B00F0A580204600F020F9002867D10C
:1031A000072223786B4802210270437023E0A38832
:1031B0004FF4805001936388674A009363786749AE
:1031C00007F05BFA4FF0FF32624C0C23A270022230
:1031D000E270002223706271012340F2FF226370CB
:1031E00023715E4900924FF480505D4A019307F0CD
:1031F00044FA0621204605B0BDE8304000F000BD8D
:10320000E388584A58494FF4805007F036FAE1797C
:10321000A379564A43EA012393801346544943F85D
:10322000061BD4F80110C2F80610B4F805209A80E5
:10323000E2799A711CE063894E4A4B494FF4805001
:1032400007F01BFAE27AA37A484943EA02238B800B
:103250000B46494A43F8062BD4F80120C1F8062052
:10326000D4F805205A60B4F809201A81E27A9A72DB
:1032700005B030BD6378414A4FF48050404907F0B3
:10328000FCF900F03DFE394B3E4A05301A6098804B
:103290006278CEE7D4F80530D4F801203A49CDE978
:1032A00000234FF48050394A07F0E7F900F00AFA9A
:1032B000D4F80130274C63F0FF031840092523465A
:1032C000002203F8015BC4F801002F495A60CDE9E0
:1032D00000024FF480502E4A07F0CFF9294689E7C3
:1032E000B4F807302B4A0293B4F805304FF48050FD
:1032F0000193B4F8033028490093B4F8013007F083
:10330000BCF9B4F80310B4F8010000F06FFC152309
:10331000104C6FF0270223700723E2702371E271D3
:10332000237200216FF004004FF4FB62FB236070F6
:10333000A1706071A1714FF48050CDE9013216493E
:103340000092164A07F099F9092153E765BB00007E
:1033500009BA0000D02300205ABB00001ABA0000AE
:103360004BBB00003DBB00004BBA00008C1A002094
:10337000493000000FBB000085300000E8BA0000B3
:10338000F3B90000353000005BBA0000DDBA000080
:10339000CEBA0000C4BA000074BA0000B6BA000089
:1033A00010B5084B4FF480509C79074A23460749D3
:1033B00007F063F9204600F013FCBDE81040FFF76A
:1033C0008FBE00BF8C1A0020DDBB00007FBB000059
:1033D0000122014B1A707047DC230020244B73B587
:1033E0001E7804462EB10378162B05D0182B28D052
:1033F0000026304602B070BD83781E4900934378A2
:103400001D4A4FF4805007F038F96378A2781720EE
:1034100003EA020404F00304022C18BF0124FFF79E
:103420006FFE05464470847023464FF48050134A63
:103430001049009407F021F90221284607F05CFAB0
:10344000D7E7B0F803300E4A019383780D49009313
:1034500043784FF4805007F010F9B4F803100A488D
:10346000FFF738FED4F80120084BC3F80620C0E768
:10347000DC2300208FBB000008BC0000FDBB000067
:10348000F0BB0000AFBB0000A13300008C1A00208D
:1034900013B50D4B01281B880C4CADF80030ADF86E
:1034A000043002BF02238DF80030042369462068EF
:1034B00008BF8DF8043007F0A6FB206801A907F0CB
:1034C000B8FB02B010BD00BF37BC0000C01A00201E
:1034D00070B5334C11464FF4867086B01E461546C3
:1034E00007F0CEF8236933B929464FF4837007F00B
:1034F000C7F806B070BDA5F10802324321D101AA78
:103500000321206807F0F8FB636860615B7A04F1CF
:10351000180123769DF804300220DA1F53425341EC
:10352000627E63F30002039B6276E361BDF80630BE
:1035300063832369984701220021206807F0E2FB9A
:10354000D7E705F17F42324305D10021012006B0C3
:10355000BDE87040184715F4A04209D04FF48071BF
:103560004FF4817007F08CF8002103202369EEE707
:1035700005F4A0631A4308D001214FF4817007F0CD
:103580007FF80021FF202369E1E705F0A0421A43FC
:1035900019BF012140F2011029464FF48370EEE774
:1035A000C01A00200A46014602484FF40073006822
:1035B00007F09EBBC01A0020F0B50446154D164A10
:1035C0006B68807A5B7A85B0D75C0E46FFF760FF48
:1035D000237A022B0DD1002339461A46286800F0C1
:1035E00019FD98B10021FF20334605B0BDE8F04039
:1035F0001847002221680092039202918DF80C3046
:103600003946286802AB00F013FDEAE72E6105B0E9
:10361000F0BD00BFC01A00200FBC00002DE9FF4123
:1036200004461B4D1B4A6B68807A5B7A0E46D75C5A
:10363000FFF72EFF237A4FF00108022B08BF01236A
:103640008DF80430636818BF226803F1640308BF73
:1036500000220293637A0024394600928DF80C30E0
:103660006A46234628688DF80D808DF80E4000F0DC
:10367000EBFC074642462146286807F043FB2FB182
:103680002146FF20B04704B0BDE8F0812E61FAE783
:10369000C01A00200FBC000008B500214FF485704F
:1036A00006F0EEFF0022044B03211A611868012284
:1036B000BDE8084007F06CBAC01A00200048704707
:1036C000C81A0020014B188C704700BFC01A002098
:1036D0007FB502238DF80630064B5A8B59690332A9
:1036E000ADF8042018686A4607F00AFB009807B096
:1036F0005DF804FBC01A0020002313B5064C60607F
:103700000093437AD0E90021206807F037FB00F0EE
:103710000DF802B010BD00BFC01A0020024A138C81
:1037200043F4807313847047C01A002038B50D4CE1
:10373000238CDB050CD563680B4D1B7A2A789A42E3
:1037400006D0012B05D0022B07D063681B7A2B70A3
:1037500038BD206800F006FFF7E7206800F008FF9A
:10376000F3E700BFC01A0020DD23002010B50024BD
:10377000064B1C60064B1C7007F0ECF8B0FA80F3A7
:10378000044A5B091370044B1C7010BDE41A00203E
:10379000E0230020DF230020DE23002010B5074BAC
:1037A0001C782CB9064B1B7833B107F0DBF80446C4
:1037B00000F066F8204610BD8124F9E7E0230020E0
:1037C000DF23002038B50A460F4903460978C1B106
:1037D0000E49087850B90E4C24783CB90D4C20683D
:1037E0001518B5F5806F02D98220087038BD1946CA
:1037F000094B184407F068FD2560BDE8384000F02B
:103800000DB88120F2E700BFDF230020E023002075
:10381000DE230020E41A0020E81A002038B5134BFC
:10382000134D1A782968022A0ED0032901D80020E6
:1038300038BD104A1068104A904203D084200F4BC4
:103840001870F5E702221A700A48FCF7D9FE044600
:103850002A680749074807F05AF8002CE7D041F2D8
:1038600007039C42E3D08520E9E700BFDF23002067
:10387000E41A0020E81A0020EB17A603E02300203A
:103880000022014B1A707047DF2300201FB5124C35
:10389000637A20460133DBB2282B28BF25236372CD
:1038A000FFF72AFF0023CDE90233E368627C01932E
:1038B0000123617DD207094801F102018DF80C3026
:1038C00048BF8DF80E30FFF76DFE054901A8FFF7E0
:1038D00073FE04B010BD00BFE81E0020FC1E0020D7
:1038E000E5380000022810B51BD002D8012805D009
:1038F000FEE7032843D0FF2841D0F9E7214C637C41
:10390000990707D5FFF7C8FEFFF7C0FF637C6FF389
:1039100041036374637CDA0730D4BDE81040FFF7DD
:10392000B5BF4B78DB072AD54C68217801F00F032F
:10393000032B11D0052B22D1C90904F1080007F08F
:1039400012F9D8B1FFF7A8FEFFF7C2FE01462046E4
:10395000BDE8104000F0DABAC90904F1080007F028
:1039600002F958B1074C94F83D1004F13C000231C3
:10397000FFF718FE637C43F00203637410BDFFF78A
:103980008BFECAE7E81E002010B50A4C5A2200211F
:10399000204607F091FC42F21072C4F80220064A59
:1039A00044F80A2C054A44F8062C42F2015224F845
:1039B000022C10BDF21E0020D6BE898E5555550032
:1039C00038B50446FFF768FE002C3FD0204C257C1C
:1039D000627CB5FA85F35B0963F300026274FFF75A
:1039E0006DFE837905F00F05C3F3000345EA8315E7
:1039F000237D23F04F031D43637D25750BB90623FB
:103A000063750368C4F816308288124B9A80FFF7FA
:103A100055FE837994F83C20C3F300039B0143F0E7
:103A2000040322F04F02134384F83C3094F83D30F5
:103A300013B9062384F83D300368C4F83E30828809
:103A4000054B9A80BDE83840FFF720BF38BD00BF66
:103A5000E81E0020FE1E0020261F002020290A4606
:103A600008B509D8054B06315975014603F11C000C
:103A700007F02AFC002008BD1220FCE7E81E002009
:103A800020290A4608B50AD8064B063183F83D10AE
:103A9000014603F1440007F017FC002008BD122086
:103AA000FCE700BFE81E00200A20D0B50B4CE38CD9
:103AB000584305F003FE0646A08C0F4605F0FEFDB8
:103AC0000022074B05F064FE02460B46304639469D
:103AD00005F088FF06F06EF82083D0BD4C20002052
:103AE0000000F43F1FB5154C40F60100218906F097
:103AF000C7FDA37E5A061FD423F0070343F001033A
:103B00002089A376FFF7F2FAA37A04F10C0023448C
:103B100093F82A306375FFF7EFFDD4E90032A3EB89
:103B2000520103EB520302934FF48033019101A839
:103B300003490393FFF772FD04B010BD4C20002031
:103B4000C93C00000022134630B58BB0D910415C4F
:103B500003F007042141CC0742BF02F12801694468
:103B600001F8283C03F1010348BF0132252BEDD1B8
:103B700000230C4CD910415C03F007052941C9070B
:103B80005FBFB3FBF2F102FB1131283169444CBF36
:103B9000D9B211F8281C0133252B04F8011FE9D1F3
:103BA0000BB030BD7520002010B540F2E244074A4A
:103BB0006043136800F5807004FB013303EB50038E
:103BC000136053680344536010BD00BF4C200020B5
:103BD000024B9884D984FFF767BF00BF4C200020B8
:103BE000014B1875704700BF4C200020C908814266
:103BF00028BF0146014B1985704700BF4C200020AB
:103C0000044B5A6D22B95865A3F85810012070472B
:103C1000002070474C20002010B504460346054A9A
:103C20004FF40060044906F028FD2046BDE810402E
:103C3000FFF76CBA85BC000039BC000010B5044623
:103C40000346084A4FF40060074906F016FD074A8C
:103C50002046BDE81040937E43F04003937606F083
:103C600049BE00BF76BC000039BC00004C200020DB
:103C700010B5144CA37E5B0623D4FFF70DFD40F274
:103C8000E241A28C236801FB023394F84F102360B9
:103C9000A37A0B442521B3FBF1F001FB10330A2179
:103CA000A372238901332381636801FB02336360BC
:103CB000238B5A1E228323B9BDE810400820FFF74A
:103CC000BDBF10BD4C2000200228F7B50E460BD01A
:103CD00003D8012800F00181FEE7032800F00381EA
:103CE000FF2800F00081F7E74D784F6815F00105D7
:103CF000814C64D14FF0FF3140F6030006F0C0FC68
:103D00000025A37E7D4F13F0200F12D0616D6FF35D
:103D10004513A376002900F0C5803B7894F858201D
:103D200043F00303B81C3B707A7007F0CDFA002310
:103D30006365FFF71DF9A37E60F34103C3F3C0027F
:103D4000A376C3F300139B0043EAC2033A7843EA25
:103D5000001322F01C0203F01C0313433B7040F6D7
:103D60000200398806F08CFC797864480231C9B2C7
:103D7000FFF718FCA37E7668D90709D56FF3000317
:103D8000A37600236360FFF7A3FC2060FFF78CFE9F
:103D9000002D00F0AF80337803F00303022B06D030
:103DA000032B00F09380012B40F0A48000252846CF
:103DB0007278B11C03B0BDE8F040FFF727B940F6B8
:103DC0000300398806F05CFC3B78A27EC3F3001345
:103DD00063F382023B78A276D1B2C3F3C000C2F390
:103DE0000012904210D0A17EC3F38003C1F3C00241
:103DF000934285D082F00102D20042F0200221F0ED
:103E000028010A43A2767BE703F00302022A1DD0B1
:103E1000032A03D0012AE6D1002018E0C1F3C00232
:103E2000C3F38003934208D082F00102D20042F033
:103E3000200221F028010A43A276A37EC3F30012D8
:103E400082F0010262F30413A3765AE728467978D8
:103E500091B9A17EC3F38003C1F3C002934201D1A3
:103E60000025EAE782F00102D20042F0200221F0B0
:103E700028010A43A276F3E7FFF7BAF8A27E397861
:103E8000C2F3C003C1F38001994208D083F001035B
:103E9000DB0043F0200322F028021343A37600281E
:103EA000CBD12DE794F82820B91C0DF10700FFF7BE
:103EB00053F848B19DF807300133DBB23A78787097
:103EC00063F301023A7034E70123F7E77178B01C1D
:103ED00003B0BDE8F040FFF743B9074B9B7E9A075C
:103EE00008D45B0706D4FFF7C3FE03B0BDE8F0407B
:103EF000FFF7F8BD03B0F0BD4C2000204C1F0020A0
:103F0000014B1889704700BF4C200020F7B5274DA2
:103F100004460E465C220021284607F0CDF92023F6
:103F2000AB7605232B83627E237E012743EA02239F
:103F3000AB84627F237F04F11E0043EA0223EB84FB
:103F400094F82330C3F3040385F84F3094F82330FA
:103F5000C3F3421385F850301B232B85FFF7F2FD86
:103F6000D4F80E30E27CEB60A37C2E6043EA02239F
:103F7000227D2F7543EA02432B6195F84F30607D17
:103F8000AB72E18A3944FFF70FFEFFF7ABFDEB8C14
:103F9000074A0093AB8C07494FF4006006F06DFBB5
:103FA000204606F0A5FC384603B0F0BD4C200020AA
:103FB00069BC00004CBC0000F8B50D4610B90024E7
:103FC0002046F8BD0E4F3E68002EF8D100F056F89E
:103FD00004460028F3D0386000F09CF8204606F034
:103FE000ECFD38B130463E6000F094F8204606F013
:103FF000DFFDE4E7002DE3D02046A847E0E700BF5F
:10400000A8200020024B1868003818BF0120704714
:10401000A820002010B506F072FF044618B9034B23
:1040200001215B689847204610BD00BF2410002086
:1040300010B506F06DFF20B9BDE81040014B1B68BC
:10404000184710BD2410002010B506F0F8FD20B967
:10405000BDE81040014B1B68184710BD241000201C
:10406000431E033306D8044B984228BF18466428E1
:1040700038BF6420704700BF40420F00F8B50546C6
:1040800006F0D8F907460F4B1E6826B9384606F0E9
:10409000D5F9344611E0B4688CB194F810C01CF026
:1040A000010F0CD14CF0010C95E80F0084F810C002
:1040B00084E80F00384606F0C1F92046F8BD36689E
:1040C000E3E700BF1C10002038B505460C4641B19F
:1040D0000B6833B11B68013303D0CB680BB18B681D
:1040E0004BB906F0C9FFBDE838404FF49272412148
:1040F000002000F021BA084602F078F80023044AB4
:1041000085F81C31C5E93043C2E9003338BD00BF32
:104110007810002010B5044618B9054B054A136005
:1041200010BD00F06DFBD4F8CC30002BF6D1F4E7D5
:1041300099AB00001810002010B50C4600F09EFB53
:10414000054B002103205B6898471CB101F05CFB24
:104150000128FBD110BD00BF2410002008B5024685
:104160000868FFF77DFF08604868FFF779FF48603F
:104170008868FFF775FF8860C868FFF771FF0B69F3
:10418000C860581C03D00B48834228BF03460B610C
:104190004B69581C03D00748834228BF03468869EF
:1041A0004B61FFF75DFFBDE808408861104601F0F4
:1041B0006DB900BF40420F002DE9F84FD0F8C43070
:1041C00006460F4613B1438B8B4244D0D6F8C0B09D
:1041D000BBF1000F42D0DBF80830002B3ED0DBF8FB
:1041E0000C1000293AD0D6F8D4A0BAF1000F38D07C
:1041F0004FF000094D46C84601E0DBF8083005EBFA
:10420000C50203EB8204E3890135BB4214D8238A3B
:10421000BB4211D3B4F91220B6F92630934250DDD7
:10422000304696F81011FDF74BFFB37D814683426F
:10423000A04606D9DBF80C108D42DED3B8F1000F92
:1042400039D00023424630461946D0477783C6F816
:10425000C48086F819910020BDE8F88F0320BDE8DE
:10426000F88FD14647F6FF755446524604EBC40812
:1042700003EB8808B8F80E30BB4216D8B8F81030F7
:10428000BB4212D3B8F91220AA4202D14FF0FF0963
:10429000DCE7304696F81011FDF712FFB37D81463A
:1042A0008342D3D94246DBF80C100134A14204D931
:1042B000DBF80830DAE70120CEE7002AFBD0904691
:1042C000C4E7A046BDE700BF2DE9F04782B0044631
:1042D0008946164601F07CFA00284CD1454D2B68E2
:1042E000D4F8C0A0D4F8C4700BB1534562D04FF0DD
:1042F0000008C5F8089001F087FA01284DD1204642
:1043000006F013FE00283AD12B68DAF800103A685C
:1043100013B11868884258D0204606F0E4FDC5E97C
:1043200000A7D4F8D4508DF80760002D54D0002297
:10433000204611460DF10703A847204600F09CFDDA
:104340000546B8F1000F00D08EB1B5FA85F040F205
:10435000DE323321400900F0EFF83146204600F00C
:10436000BBFF254B0546394620461B689847284623
:1043700002B0BDE8F08700231E4D6B60AFE794F9F3
:104380001030002BC0DAA36B5B05BDD51B4B01229F
:10439000002120461B689847B6E7012000F06EFA1E
:1043A000174B002103205B68984701F02DFA012884
:1043B000FBD1A4E76B68002B99D0BB4297D1AB68C7
:1043C000994514D04FF0010893E7696811B1096865
:1043D0009142A4D059689FE7A17D94F819313246E3
:1043E000994228BF1946204600F0C8FCA5E70025E1
:1043F000BDE700BF7810002018100020CC2200205C
:1044000024100020F8B50E46054606F013F8314694
:1044100007462846FFF7D0FE0446F8B1284606F0C6
:1044200084FD38B195F91030002B08DB0023114AC8
:1044300082F8AC30384606F001F82046F8BDAB6B88
:1044400013F48063F3D0B5F80A31B3420FD0B5F856
:104450000C319B1BB3FA83F35B09E8E701F09CF98D
:10446000224631462846FFF72FFF0446D6E70123B0
:10447000DDE700BF001E00B0F8B51C4B05461B6809
:104480000E4603B1984731462846FFF71DFED5F882
:10449000C03073B15B6963B106F088FED5F8C030F7
:1044A00040F26B125B6942211B1A5842584100F0DE
:1044B00043F800224FF6FF734FF0240CF768D0B298
:1044C000B84208D31C4621462846FFF79BFF06F05A
:1044D000D8FD2046F8BDB1680CFB0011CC899C4288
:1044E00002D2002CEFD023460132E8E7C822002098
:1044F0004FF4007307B50A490DF10602ADF8063016
:1045000006F0F8FBBDF80630B3F5007F05D10228B0
:1045100008BF002003B05DF804FB0120FAE700BFEC
:10452000AC200020024B1960024B1860FEE700BF70
:1045300020100020AC22002008B550B90548064BD9
:1045400001601A60054B1A68054B1A601868FFF77E
:10455000E9FF08BD20100020B0220020A820002084
:10456000AC220020014906F0DABB00BF395A000036
:10457000014906F0D4BB00BF0D5A000037B50C4608
:104580001D4D41B90A46072104F028FF1B4BEC6082
:104590005C6003B030BD0722114604F01FFF072204
:1045A000174B0121DA60237901A82B7363790193FA
:1045B00006F044FE019BC2B2D34000F00F0040EA77
:1045C00003106873A279AA73E279EA7320682861FC
:1045D00083B1012102888B4205D82379013B134422
:1045E000084A1362D5E730F811500131AA4228BFBA
:1045F0002A46F0E71A46F0E7001F00B00C1F00B093
:10460000006000B8004000B8431C07D06FF0FF0204
:10461000034B10401A62A3F580531862704700BF25
:1046200000E000B810B5042301240A4A0A49D1F871
:10463000EC00C2F8EC30C2F8E0300C634FF40051EB
:10464000D162410742BFC2F8E030A2F58052C2F801
:10465000EC3010BD006000540040005400F018031E
:10466000182B0AD003070AD440F2011310F01000EF
:1046700018BF1846034B986370470020FAE70120E3
:10468000F8E700BF001F00B0354B2DE9F7431E6867
:1046900001F4007900F00103174653EA09020546C8
:1046A0000C4631D04FF000081BB30023002200213C
:1046B0000120CDE9008803F025FD042002F0DCFA9A
:1046C0004146304602F014FF4146B0830120FFF717
:1046D00033FDB16B06F1D80002F08CFF2149086868
:1046E000FFF792FF4FF0FF330B60337C43F004037E
:1046F0003374B9F1000F07D00121304606F0E6FA15
:1047000024F4007405430C43D6E94E232A40234089
:1047100052EA030103D01449304609688847FB0771
:104720000FD51249124A086800211368116001214F
:10473000104A117003B198470F4B002102205B68AB
:10474000984717F00E0F08D040F2F3123B210020DB
:1047500003B0BDE8F043FFF7EFBE03B0BDE8F08360
:10476000A82000202C10002030100020C0220020A3
:10477000C4220020E323002024100020F7B50446C3
:104780001046D4E94EC7DDE908268CEA020587EA1F
:1047900006010540194085EA0C057940C4E94E51EF
:1047A000002523F4004106EA010320F0010043F450
:1047B0000073024043F00203CDE9005503F0A2FC70
:1047C000237C9A0717D5D4F83C319B0513D54FF4B9
:1047D0008811204606F07AFA237C65F3410323749E
:1047E000D4E94E2302400B4052EA030103D00349AF
:1047F000204609688847002003B0F0BD3010002033
:1048000038B10368044A002B08BF1346034A1360FB
:104810007047014BFAE700BFA3AD00003010002045
:10482000024B586A00F00F00704700BF001F00B035
:104830000F2938B505460C460ED800F0E5FF0128D3
:104840000CD1074A2846536A23F00F0323435362CF
:1048500006F06EFB002038BD0120FCE70220FAE7DD
:10486000001F00B0014B986A704700BF001F00B0E6
:10487000014B002099627047001F00B003282DE90A
:10488000F7434CD8274B13F80080274B1E5C274B6F
:1048900013F8009005F0CEFD074603F0EDFD054648
:1048A00040B100230022CDE9003301200023002184
:1048B00003F028FC03F0E8FD48B100230022CDE915
:1048C0000033002000234FF4004103F01BFC26B30B
:1048D000174BDC6C04F00804164B3146DC64404690
:1048E00003F0DEFF4A463146404604F041F8124BE1
:1048F000DC6465B1114B1868816BD83002F07AFE28
:104900000F490868FFF780FE4FF0FF330B60384611
:1049100003B0BDE8F04305F091BD3446DCE703B0D9
:10492000BDE8F083ACBC0000A8BC0000A4BC000043
:10493000004000B8006000B8005000B8A820002077
:104940002C1000200F4A136F13F0A00F15D1506FD9
:1049500010F0040013D10C4BD3F8C03E23F07F437A
:1049600023F0FF035BB1D368C3F30362092A07D0C6
:10497000B2F10C0018BF01207047002070470120E1
:10498000704700BF000002B8001000B070B50D46BF
:10499000064620B9194B1B68A3B1032011E000F0B3
:1049A00033FF012828D1164B93F90040C4F11C04B1
:1049B000641BC4F11C03002BB8BF5B42232B0CDD2E
:1049C000012070BD81EAE173A3EBE173DBB2232B1D
:1049D000F6D80B4B19700020F3E7B57405F02AFDEB
:1049E000084AE402D36904F4FF2423F4FF231C43A0
:1049F000D46105F023FDEEE70220E2E7A8200020C5
:104A0000E123002000C000B8094B08465A6A910211
:104A10000BD4D3F80021D20708D4D3F8803013F494
:104A2000706F14BF0120002070470120704700BF45
:104A3000004001B8F8B50E46836B02EA010423EA90
:104A4000010323438363464A01F00B0323EA040175
:104A5000D1642340A2F5805277070546D36410D570
:104A60000121FFF7D1FF60B103F0BCFE4FF40073EA
:104A700014F0040F14BF3B4A3B4A536204223B4BE1
:104A80001A67F00606D514F0100F14BF00221B227F
:104A9000374B5A6531061DD5220616D54FF4001244
:104AA000304B1A62012203F58053C3F8002105F050
:104AB000C1FC0E210746032002F0E0FC40F2012277
:104AC0002B4B3846DA6205F0B9FC214605F1D800D7
:104AD00002F090FDF30503D5E7052AD502F09EFC10
:104AE000B00503D5A10527D502F0A4FC16F48C6F00
:104AF0001DD014F4806224D095F91030002B0CDA0C
:104B00006A8BB5F80A31934219D0B5F80C319A1A6C
:104B100053425341174A82F8AC30D5F8C8102846A2
:104B200006F040F98022144B5863144B1A610020A0
:104B3000F8BD02F06DFCD3E702F076FCD6E7012366
:104B4000E8E77305E9D595F91030002BE5DA094B54
:104B5000114683F8AC200A4B28461B689847DCE7CF
:104B6000006000B8005001B8006001B8002002B831
:104B7000004000B8001E00B0001F00B0000002B8E6
:104B8000CC220020014B186A02F08ABC004001B818
:104B9000014B186A06F00CBB004001B8437C5A1F59
:104BA000012A01D9082B05D14B7C2BB1012B05D053
:104BB000022B05D006F01EB9024870470248704724
:104BC0000248704720A1070048E8010040420F005A
:104BD00070B50E4605F02EFC054600F039FE044681
:104BE00020B1284605F02AFC204670BD03F0FAFDEE
:104BF000104B3278D3F8C03E022A23F0F00315D0D0
:104C0000101F42424241520043EA02137278022AC4
:104C10000ED0111F4A424A41520043EA8213054A0C
:104C2000C2F8C03E0422044B1A67DAE70122EBE720
:104C30000122F2E7001000B0002002B870B50E4665
:104C400005F0F8FB054600F019FE044620B12846A1
:104C500005F0F4FB204670BD03F0C4FD104B327824
:104C6000D3F8C03E022A23F00F0314D0101F424293
:104C70004241520013437278022A0ED0111F4A4259
:104C80004A41520043EA8203054AC2F8C03E042268
:104C9000044B1A67DBE70122ECE70122F2E700BFD1
:104CA000001000B0002002B82DE9F8430E78044649
:104CB000042E0D4690F810810BD100275FFA87F97A
:104CC000484601F0C5FB08B14E4602E00137042F0B
:104CD000F4D1304601F0BCFB002845D094F81031E7
:104CE000B34208D1AA88E36C9A4204D16A88B4F826
:104CF00012319A4235D084F81061AB883046A4F85E
:104D000014316B88A4F81231AB8804F58875E3641C
:104D1000FF23E37506F0E0F9A075284601F0C4FA18
:104D200018BB284601F08AFBF8B9D4F8C43053B157
:104D300094F81011414506D02046B3F91220FDF732
:104D4000BFF984F81901204601F0E4FC0949A4F8F0
:104D500014010123084AD1F8FC1004F1D80002F034
:104D60008DFF0020BDE8F88301200E2384F8103168
:104D7000F8E700BF001F00B0581F00B0F8B50546A7
:104D800090F810010C460E28164622D0FF2922D09A
:104D90001AB14FF0FF32114B1A6006F09DF9074629
:104DA00095F8100101F0B2FB844228BF0446E4B23A
:104DB000BC4238BF3C46E0B2E87501F04DFC044609
:104DC00016B9284601F0B6FBA4F1FF03584258413A
:104DD000F8BD0220FCE70120FAE700BF34100020F4
:104DE00010B590F8103104460E2B3DD0D0F8C430E9
:104DF0008175B3B3D0F8D420D2B990F819318B4271
:104E00001CD300222046FFF7B9FF80B9174B1B784F
:104E1000022B0BD8204601F07DFC15490123154AD1
:104E2000D1F8FC1004F1D80002F028FF002010BDDA
:104E3000B0F92620B3F912309A42E2DD0022204672
:104E400094F81911FFF79AFF0028F0D1C4F8C400B4
:104E5000204605F0C0FE01462046BDE81040FFF7A1
:104E6000D1BAFF23C375E1E70220E0E75E1000201E
:104E7000001F00B0581F00B0036C012B01D10020AF
:104E80007047F0B5054665498DB006F050F9D5F884
:104E9000C46001466C8BC5F8C80026B1336813B1F5
:104EA0005B68002B62D105F0C5FA05F0C7FA012353
:104EB000D5F8C8108DF80630B389D6E90120E31A79
:104EC0009BB200FB03225648ADF804300368009201
:104ED0008B4207D0284605F065FF80225149524B8E
:104EE00048631A61504E00F08FFC01280446FAD145
:104EF000B3689A06F7D428469DF80620009906ABB9
:104F000002F018FC78BB684606A902F0CBFD064605
:104F100048BB6A8B454B5A642B7C60F341032B746E
:104F200000F074FED5F8C4305969431E0F68DBB237
:104F3000FD2B029720D84B68012803934ED10746DA
:104F4000DE1C27D8024602A9284606F032F83FB9EF
:104F5000D5F83C31990543D42B7C43F002032B74E4
:104F600000200DB0F0BD02200DB0F0BD1A68032A7C
:104F700099D99B6A5B0E9DE7FB1C13D84B68FF28F1
:104F800008BF27460393DBD03246284602A906F025
:104F900010F8E5E70133264B5B6816D0DA1C30D8F1
:104FA0000393CFE7224B01371B6818BF0127DA1C98
:104FB00006D802934B68FF280393C1D00020C1E7B5
:104FC000FF284B6826D00393C1E7DC1C1CD802469F
:104FD000284602A9039305F0ECFFB9E70246D4E79F
:104FE0004FF48031284605F071FED5E94E2302408A
:104FF0000B4052EA0301B3D00E492846096888479E
:10500000AEE7FF28A3D1D9E7FF28A1D10022284687
:1050100002A9E0E72046039392E700BFFC1F00B01F
:10502000B4220020001F00B0000002B8008001B8C8
:105030003C1000203010002038B590F81C51044678
:105040003DB305F0F7F91F22124B013D5A6215409E
:10505000114A12495562D4F820518D66D4F8245172
:10506000CD66D1F80011C9070FD54FF0FF31C3F855
:105070000411616CC2F804114FF0F041C3F8101133
:10508000E37CDB060B40C2F81031BDE8384005F088
:10509000D5B938BD006001B8005001B8004001B872
:1050A0002DE9F74F06461546084619B9012003B009
:1050B000BDE8F08F002AF9D0032904D8002100F0C0
:1050C000DFFF0028F2D082780488037990F80590F9
:1050D000C788B0F9000002F007010028C0F2C780BD
:1050E000A1F1070CDCF1000040EB0C00052928734E
:1050F00094BF0020C2F30010C2F3801C68739009B3
:1051000085F810C000F00200C2F3C00C40EA0C00A9
:10511000C2F340126874AA74AF820BB996F8FE30DD
:10512000013BDBB2EB74B36BD80600F18C8006391F
:10513000012900F288804FF001084E4B083C5B6D5E
:105140004D4BDF6B9B6B47F0005703F007030633B3
:1051500008FA03F8002308F1FF3804EA080417F8F6
:1051600004A0013404EA0804AB60631D03EA0803E9
:10517000BAF1800FFA5C717C03F1010318BFAAF148
:10518000320A03EA080308BF6FF07F0AFB5C18BF0E
:105190004FFA8AFA41B30020D6F8D0300BB151460D
:1051A0009847631CE87385F80EA003EA0803F95CCE
:1051B000013303EA0803FA5C013303EA080341EA16
:1051C0000221FA5C013303EA0803F85C41EA024178
:1051D000002341EA00616A7C304602F04DFE06235E
:1051E0002860AB71002062E742EA0323D9040FFA7A
:1051F00083FB25D5D6F8C830ABB11A68022A12D97C
:1052000093F82400CBF30B03DB0008B1B3FBF0F3FE
:105210009945C0D8002BBED0C9EB0920B0FBF3F0F4
:10522000C043C0B2B8E729463046FFF7B7FC01904B
:10523000304605F0CFFD019BB3FBF0F0C0B2E1E7D3
:10524000385D4000EDE700230020EB730B4B5A69FB
:10525000C2F30723120448BF63F0FF035AB212F1EE
:10526000800F1CBF323B5AB2AA730346B8E7022034
:105270001DE700BF004000B80040005400C000B867
:1052800070B54FF480640B4D0B4B0020D3F8EC60ED
:10529000C5F8EC40C5F8E04003F046FB4FF400537E
:1052A000EB65730542BF054BC5F8E040C3F8EC4021
:1052B00070BD00BF00600054004000540050005416
:1052C000082310B1024A13677047024AFBE700BF88
:1052D000001002B8002002B8F8B504460E4611B915
:1052E000037C5A063FD44FF6FF73E18BD4F8C870A5
:1052F000994204D0304B1B680BB1204698472F4D84
:105300002B68BB424CD02E4B1B683BB11FB13A6897
:10531000002A47D0BF6839462046984707272046CD
:1053200001F0F8F9002E31D006270126254B94F91B
:10533000122093F900302449C3F11C039B1ACA6957
:10534000DB0222F4FF2203F4FF231343CB61D4F8E2
:10535000C8301E4A2B601E4B976720461E7005F012
:10536000E7FD0020F8BD4FF6FF71144DD0F8C8706E
:105370002A6866F386139742C183037417D0104BD3
:105380001B68002BC2D101F0C5F9072711493B4624
:10539000114AD1F8FC1004F1D80002F06FFCC3E709
:1053A0000127BCE71746204639469847B6E701F083
:1053B000B1F90127EAE700BFBC220020B422002097
:1053C000B8220020E123002000C000B8006000B82F
:1053D000E2230020001F00B0581F00B04822002127
:1053E000014805F069BF00BFC41E00B0002373B5BB
:1053F000837464234FF0FF3578220E26C0E93933D9
:10540000C0E93B33C0F8E0304FF6FF730446A0F824
:10541000F4200376C38380F81061C564C5820562F9
:105420008584057503F038F82046FFF7D7FF94F917
:1054300012102046FFF7AAFA602340F6FF71104AC7
:105440002046D36402F11C42D162D1650D4A29463F
:10545000D36440220C4B1A67A26BFFF7EBFA0022D1
:1054600040F2022310461946CDE9006602F04AFEDA
:1054700001F00AF8204602B0BDE87040FFF738B8E6
:10548000004000B8005000B8002002B8034670B5D4
:105490000C68B0F81421013408BFD3F8E0408D68DF
:1054A00008BF0C604C68D830013404BFD3F8EC401E
:1054B0004C606E1C38D1D3F8E840CE688C60751C07
:1054C00038D1D3F8E4500E69CD60013604BFD3F86B
:1054D000D8600E614E69013604BFD3F8DC604E61BE
:1054E0008E69013604BFD3F8F0608E618E693EB3D9
:1054F0005A32B24238BF32460E688A61C3F8E84079
:105500004C68C3E93865C3E93B420A69C3F8D8204F
:105510004A690C49C3F8DC20D1F8FC1007230A4A79
:1055200002F0ACFB002070BD02F15A04AC4238BF5F
:105530002C46C2E702F17805B54238BF3546C2E7CE
:105540006422D9E7001F00B0581F00B038B504F03E
:1055500071FF4FF6FF710A4A13888B4203D104F0A2
:105560006DFF032038BD074C074D1B046566A4F58D
:1055700080546366118004F061FF0020F2E700BFF1
:105580005C100020006001B80000FFFF2DE9F3412E
:1055900004460F461546FFF7D5F980B1DFF8F481D0
:1055A000D8F81430DA0740F1D88004F043FF0646FB
:1055B000032001F07DFC38B1304604F03FFF0226A5
:1055C000304602B0BDE8F081D8F8143013F0060F71
:1055D000F2D1304604F032FF614B4FF400612046B7
:1055E000D3F8C08ED3F8946E03F00CFF38B14FF4AB
:1055F000007201215B4B08461A67FEF79DFD94F986
:105600001030002B06DAA36B5B0542BF4FF400227B
:10561000554B1A6739462046FEF7F4FE504BC3F847
:10562000946EC3F8C08E06460028C9D1237CD806E4
:1056300001D4002D54D0C5F3400003F099F80223A3
:1056400015F4807F1BBF0021474A464A136717BFE6
:10565000464A13675161136303F0C4F84FF4806343
:1056600015F0040F14BF424A424A15F0400F53622E
:105670004FF004023B4B28461A674FF0400314BF1B
:105680003D4A3E4AC2F88830FEF7E8FF204605F062
:10569000D1FB38B14FF4807315F0010F14BF324ABB
:1056A000304A1367A90642D54FF6FF72A38C934286
:1056B0000FD0334A3349526E100CC2F3011201323B
:1056C000B3FBF2F308802A4A2A492F481B04486694
:1056D0005366003D18BF0125237C65F30413237432
:1056E000204605F022FCF0B1204605F0A3FBD0B126
:1056F0004FF40031204603F085FE431C03229BB289
:10570000224801A905F0AFFC9DF8042002F0070330
:10571000052B9DF8053013D112070BD443F4807389
:105720001B4AC2F8A030002005F0A9FC48E7FFF7AB
:105730000DFFCEE713F0040F09D19DF80630EDE719
:1057400003F03002202A05D113F0010FF4E74FF4E3
:105750008073E5E79DF80630E2E7032630E700BFF7
:10576000001000B0002002B8001002B80040005441
:10577000005001B8006001B800D000B800E000B8E7
:10578000004001B85C1000200000FFFF08400054FA
:10579000001E00B000C001B808B50A4BD3F84C3168
:1057A0005A1C0ED05B000CD40320FFF767F84FF0B3
:1057B00080624FF40071044BDA67044AD16201221F
:1057C0005A6108BD0080E00F001002B8004000B828
:1057D0004FF40022034B186F03F500531A67C0F310
:1057E000C0407047000002B8014B024A1A6070477F
:1057F000B82200207D450000024B586900F00100EE
:10580000704700BF00C001B80F4BDB68C3F30363F0
:10581000013B0B2B0FD8DFE803F006060C0606064B
:1058200006080A080808022070470420704705206F
:10583000704703207047054B5B6913F0060F0CBFE0
:1058400001200420704700BF000002B800C001B86A
:10585000094AD368C3F303630B2B08D06FF490504D
:10586000184100F0010080F0010040007047106F07
:1058700010F48030EDD17047000002B80C4AD368B4
:10588000C3F30363062B07D8042BD8B20BD8C31E6F
:105890005842584140007047072B06D1D2F83001DA
:1058A0000028ECD17047022070470020704700BFED
:1058B000000002B8024B1B6803B11847704700BFD5
:1058C000D8220020024B1B6803B11847704700BF65
:1058D000D4220020F0B5CF072BD5002A14BFAA256B
:1058E00055250E461E24154F01F0030383F00103D6
:1058F0003B449B7806F0070C17F80CC0013C63444E
:105900004FEA5606F6D10E4E73436FF481769B0C28
:10591000334482B991FAA1F195FAA5F54A082D0F01
:10592000490042EAC57201F00204C474C0E91123BF
:10593000F0BDAA25D5E7034AF7E700BFB8BC0000D1
:1059400036FC1000B756351230B547F6FE74154BCD
:10595000C3F83042856C04EA4504134DC5F8304263
:105960000F245C66CC071BD5D2B901246C664FF0BE
:10597000FF34C3F80441456C0B4CC4F804514FF09C
:10598000F045C3F81051C37CDB062B40C4F810313E
:105990002AB10222054BC0F88010C3F8C02030BDE8
:1059A0000224E3E7006001B8005001B80040005451
:1059B00013B5437C0446033BDBB2072B96BF104A6A
:1059C0000021D15CFEF754FF012001F0C1F84FF433
:1059D000F0620C4BDA644FF40072A3F58053DA6482
:1059E000637C053B012B08D80421074B01229B6EE9
:1059F0000DEB0100019300F0BFF902B010BD00BF34
:105A0000B0BC0000006000B8004001B8012310B530
:105A100080F8F6302823C0F8DC30042304464374B1
:105A2000044B1968FEF728FD2046FFF7C1FF002050
:105A300010BD00BF10BD0000012310B580F8F63086
:105A40002823C0F8DC30022304464374044B196851
:105A5000FEF712FD2046FFF7ABFF002010BD00BF90
:105A600014BD000038B5184B04461D6845B1EB68FD
:105A700033B1286801F014FCAB68186801F010FC21
:105A8000124B1B682BB1DA681AB19B68186801F0D9
:105A900007FC0F4B1B682BB1DA681AB19B681868BA
:105AA00001F0FEFB0B4B1B682BB1DA681AB19B6847
:105AB000186801F0F5FB2046FFF7BEFF2046BDE861
:105AC0003840FFF775BF00BF14BD000010BD0000D7
:105AD0000CBD000008BD0000072330B5124D134C6B
